:100000000C942F110C94796B0C944E6B0C94236B05
:100010000C94F86A0C94CD6A0C94A26A0C94776ADA
:100020000C944C6A0C9460110C9460110C94601147
:100030000C9460110C9435380C9460110C94601180
:100040000C9460110C9436720C9460110C94601135
:100050000C9460110C9460110C94D13D0C94026AC4
:100060000C9460110C944DBD0C9460110C946011B3
:100070000C9460110C9460110C9460110C9460113C
:100080000C9460110C9460110C9460110C9460112C
:100090000C9460110C9460110C9460110C9460111C
:1000A0000C9460110C9460110C9460110C9460110C
:1000B0000C9460110C9460110C9460110C946011FC
:1000C0000C9460110C9460110C9460110C946011EC
:1000D0000C9460110C9460110C940BAF0C94CCAE8A
:1000E0000C946011E42F0230383056306C309A3066
:1000F0000D317A3128328032B132CA32D1341833DC
:1001000022332C333633473371339733B5330B34C3
:10011000473451345B3465346F34D1348734D1344F
:10012000D134D134D13490345A3E6A3E893E993E1E
:10013000B43EB93EBC3EC13EC43EC93ECC3ED13EBB
:10014000DB3ED368D668C568C968CF680D69DA68D0
:10015000DE68E468E868EC68F268F668FA680D69D9
:1001600000690469086920A425A42AA434A43EA433
:10017000B7A448A450A458A462A46CA476A485A4EF
:100180008FA4B7A499A4A3A4ADA4084AD73B3BCE9F
:10019000016E84BCBFFDC12F3D6C74319ABD568386
:1001A0003DDA3D00C77F11BED9E4BB4C3E916BAA3E
:1001B000AABE000000803F05A84CCDB2D44EB9388D
:1001C00036A9020C50B9918688083CA6AAAA2ABE74
:1001D000000000803F004E414E494E495459494E5F
:1001E00046CDCCCC3D0AD7233C17B7D13877CC2BA2
:1001F000329595E6241FB14F0A000020410000C847
:100200004200401C4620BCBE4CCA1B0E5AAEC59DC7
:1002100074434F4D4D554E49434154494F4E004450
:10022000525952554E004552524F525300494E4674
:100230004F004543484F0020746F6F206C6F6E670E
:1002400020657874727573696F6E2070726576655B
:100250006E7465640A0020636F6C64206578747244
:100260007573696F6E2070726576656E7465640A69
:100270000047322F47332062616420706172616DE4
:1002800065746572730A00536C6565702E2E2E00BE
:100290004A3034003344205072696E7465722072A3
:1002A000656164792E00526573756D696E672070A3
:1002B00072696E74005761697420666F722075737D
:1002C00065722E2E2E004E6F206D6F76652E0045C6
:1002D0006E642066696C65206C6973740A004265FF
:1002E00067696E2066696C65206C6973740A0053D7
:1002F00044207072696E74696E672062797465203B
:10030000004E6F74205344207072696E74696E677A
:100310000A0046696C652064656C657465643A0022
:1003200044656C6574696F6E206661696C65642CE8
:100330002046696C653A20006F70656E20666169C1
:100340006C65642C2046696C653A20002569730051
:1003500025696D20256973002569682025696D2050
:1003600025697300256964202569682025696D2049
:10037000256973002569792025696420256968202D
:1003800025696D20256973005072696E7420746947
:100390006D653A200048656174696E672E2E2E00E7
:1003A0003344205072696E7465722072656164799D
:1003B0002E0032022D0226021F0211026F66660015
:1003C00044454255473A004B494C4C45442E200089
:1003D0006F6B004A3033004A3034004A30370048EF
:1003E000656174696E6720646F6E652E003F0A0058
:1003F00020573A004A30360048656174696E672EAE
:100400002E2E003344205072696E7465722072651E
:100410006164792E007A325F6D696E3A20007A5FEE
:100420006D696E3A2000795F6D696E3A2000785FE1
:100430006D696E3A20005265706F7274696E672044
:10044000656E6473746F70207374617475730A00E1
:100450004D31343520533C696E6465783E206F75AC
:1004600074206F662072616E67652028302D3129F7
:100470000A0053657474696E672054726176656C06
:1004800020416363656C65726174696F6E3A200028
:1004900053657474696E6720526574726163742069
:1004A000416363656C65726174696F6E3A200053D5
:1004B000657474696E67205072696E74204163635D
:1004C000656C65726174696F6E3A2000536574746F
:1004D000696E67205072696E7420616E6420547278
:1004E0006176656C20416363656C65726174696FE8
:1004F0006E3A20005A20456E6473746F7020416418
:100500006A7573746D656E742073657420746F20E2
:10051000286D6D293A00205A0020590058002020EB
:100520004D61783A2000205A0020590058002020C0
:100530004D696E3A20004F6E20004F666600536F83
:10054000667420656E6473746F70733A2000206463
:100550003A0020693A0020703A0043290A0061629B
:100560006C656420286D696E2074656D7020004391
:100570006F6C642065787472756465732061726550
:10058000200023646566696E652020444546415518
:100590004C545F4B64200023646566696E652020BF
:1005A00044454641554C545F4B69200023646566C1
:1005B000696E65202044454641554C545F4B702080
:1005C00000504944204175746F74756E65206669EA
:1005D0006E697368656421205075742074686520A5
:1005E0006C617374204B702C204B6920616E642009
:1005F0004B6420636F6E7374616E74732066726FE8
:100600006D2062656C6F7720696E746F20436F6E2A
:1006100066696775726174696F6E2E680A00504969
:1006200044204175746F74756E65206661696C65F0
:1006300064212074696D656F75740A005049442007
:100640004175746F74756E65206661696C656421AF
:100650002054656D706572617475726520746F6F7A
:1006600020686967680A00204B643A2000204B69C3
:100670003A2000204B703A20000A20436C617373CB
:10068000696320504944200A002054753A20002014
:100690004B753A2000206D61783A2000206D696E1C
:1006A0003A200020643A200020626961733A2000F9
:1006B0004F666673657473206170706C6965640061
:1006C0004572723A20546F6F206661722100546F38
:1006D0006F206661722066726F6D2072656665724A
:1006E000656E636520706F696E740A00416374699A
:1006F00076652045787472756465723A2000556E8F
:100700006B6E6F776E20636F6D6D616E643A202241
:10071000004A3032004A31360056312E312E310037
:100720004A333320004A3032004A313200473930F0
:100730000047312045256946353030004731204596
:100740002D302E314625690047312045302E314667
:100750002569004731205A2569462569004731201F
:100760005A2D302E31462569004731205A302E311E
:1007700046256900473120592569462569004731DA
:1007800020592D302E314625690047312059302E11
:1007900031462569004731205825694625690047BB
:1007A0003120582D302E31462569004731205830F0
:1007B0002E3146256900473931004732380047322B
:1007C00038205A0047323820590047323820580024
:1007D0004132305620004F4B004A3036004D3834FD
:1007E000004A3034004A3136004A303500454E4424
:1007F00000464E20004A3032003939393A39393909
:10080000004D0048004137562000413656202D2D1E
:100810002D0041365620005A3A2000593A200058FF
:100820003A200041355600413456200041335620CD
:100830000041325620004131562000413056200000
:1008400045525220004D313130004A3130004B4981
:100850004C4C45442E2000202D20496E76616C6959
:1008600064206578747275646572206E756D62655A
:100870007220210A002020506C616E6E65724275F4
:100880006666657242797465733A20002046726527
:1008900065204D656D6F72793A2000436F6D706908
:1008A0006C65643A2041707220313020323031382A
:1008B0000A00207C20417574686F723A20284A65CE
:1008C0004A6566662C2078787878787878782E4330
:1008D0004F2E290A00323031362D31322D3036205C
:1008E00031323A303000204C6173742055706461AD
:1008F0007465643A2000312E312E302D5243380A6F
:100900000056312E312E310A0020536F6674776104
:1009100072652052657365740A00205761746368BC
:10092000646F672052657365740A002042726F77A6
:100930006E206F75742052657365740A00204578C7
:100940007465726E616C2052657365740A00506F35
:1009500077657255700A004A3132004A31370073A8
:10096000746172740A004731205A2B3230004739C3
:1009700031006572726F722077726974696E6720D8
:10098000746F2066696C650A004A3132004A303360
:10099000004A313800446F6E6520736176696E6776
:1009A0002066696C652E0A004D3239004865617415
:1009B000696E67206661696C656400486561746989
:1009C0006E67206661696C65640048656174696E74
:1009D00067206661696C65640048656174696E676B
:1009E000206661696C6564004A31300070012C0139
:1009F00090012701B0012201C0011D01F001180181
:100A00001002130130020E0160020901900204017C
:100A1000C002FF000003FA004003F5008003F0006D
:100A2000D003EB002004E6007004E100E004DC00E9
:100A30004005D700C005D2004006CD00D006C80052
:100A40008007C3003008BE00F008B900C009B40038
:100A5000B00AAF00B00BAA00D00CA500000EA00099
:100A6000500F9B00C01096005012910000148C0093
:100A7000C0158700B0178200B0197D00D01B780028
:100A8000001E730040206E0090226900F024640074
:100A900040275F0090295A00E02B5500102E50008F
:100AA00020304B0010324600E033410090353C00CE
:100AB0001037370070383200A0392D00B03A2800C6
:100AC000A03B2300603C1E00103D1900903D140027
:100AD000103E0F00703E0A00C03E0500003F0000BF
:100AE000544845524D414C2052554E4157415900B2
:100AF000546865726D616C2052756E617761790022
:100B00004A3130004572723A204D415854454D509B
:100B100020424544004572723A204D415854454D9B
:100B200050004D415854454D5020747269676765B7
:100B3000726564004572723A204D494E54454D50DD
:100B400020424544004572723A204D494E54454D6D
:100B500050004D494E54454D502074726967676589
:100B60007265640025753A2530327500253032757E
:100B70003A25303275002D2D2D005344005A00596E
:100B80000058000120000120004D6F7665205800BC
:100B90004D6F76652059004D6F7665205A00457877
:100BA000747275646572004578747275646572005C
:100BB0004D6F7665205A004D6F76652059004D6F58
:100BC00076652058004D6F76652061786973004D19
:100BD0006F766520302E316D6D004D6F766520315A
:100BE0006D6D004D6F76652031306D6D0050726512
:100BF0007061726500526573746F72652066616919
:100C00006C73616665004C6F6164206D656D6F7219
:100C1000790053746F7265206D656D6F727900464F
:100C2000696C616D656E74004D6F74696F6E005410
:100C3000656D7065726174757265004D61696E00F5
:100C4000507265686561742041425320636F6E661F
:100C5000005072656865617420504C4120636F6E6E
:100C600066005049442D44005049442D44005049E9
:100C7000442D49005049442D49005049442D50000D
:100C80005049442D50002002204661637400200228
:100C90002046616374002002204D6178002002200C
:100CA0004D6178002002204D696E002002204D69C0
:100CB0006E004F6666004F6E20004175746F74655C
:100CC0006D700046616E2073706565640046616EEC
:100CD0002073706565640042656400426564004E7F
:100CE0006F7A7A6C65004E6F7A7A6C6500436F6E2E
:100CF00074726F6C0053746F7265206D656D6F72E6
:100D0000790042656400426564004E6F7A7A6C65D2
:100D1000004E6F7A7A6C650046616E20737065656F
:100D2000640046616E2073706565640054656D7083
:100D30006572617475726500206279746573290A41
:100D40000053657474696E67732053746F726564C1
:100D5000202800454550524F4D20636865636B73F2
:100D6000756D206D69736D617463680A0020627926
:100D7000746573290A002073746F7265642073654B
:100D80007474696E677320726574726965766564E0
:100D900020280048617264636F646564204465665E
:100DA00061756C742053657474696E6773204C6F41
:100DB000616465640A0020204D3230302044300ADE
:100DC0000020204D3230302044002044697361629D
:100DD0006C65640A0046696C616D656E74207365AC
:100DE0007474696E67733A00204400204900202023
:100DF0004D3330312050005049442073657474697C
:100E00006E67733A0A002046002042002048002006
:100E1000204D3134352053004D6174657269616C29
:100E20002068656174757020706172616D657465AC
:100E300072733A0A0020204D363636205A005A3254
:100E400020456E6473746F702061646A7573746D8D
:100E5000656E7420286D6D293A0A00205A002059C9
:100E60000020204D323036205800486F6D65206FCD
:100E7000666673657420286D6D290A002045002080
:100E80005A00205900205800204200205400202001
:100E90004D323035205300416476616E63656420C5
:100EA0007661726961626C65733A20533D4D696E7B
:100EB00020666565647261746520286D6D2F7329E5
:100EC0002C20543D4D696E2074726176656C2066ED
:100ED0006565647261746520286D6D2F73292C20FF
:100EE000423D6D696E696D756D207365676D656EE8
:100EF000742074696D6520286D73292C20583D6D10
:100F00006178696D756D205859206A65726B20286B
:100F10006D6D2F73292C20205A3D6D6178696D7598
:100F20006D205A206A65726B20286D6D2F73292CF5
:100F30002020453D6D6178696D756D2045206A659D
:100F4000726B20286D6D2F73290A002054002052E7
:100F50000020204D323034205000416363656C65C1
:100F6000726174696F6E733A20503D7072696E746D
:100F7000696E672C20523D726574726163742061E2
:100F80006E6420543D74726176656C0A00204500E1
:100F9000205A0020590020204D3230312058004D79
:100FA0006178696D756D20416363656C657261740C
:100FB000696F6E20286D6D2F7332293A0A00204523
:100FC00000205A0020590020204D32303320580094
:100FD0004D6178696D756D206665656472617465D3
:100FE0007320286D6D2F73293A0A00204500205A7E
:100FF0000020590020204D3932205800537465706C
:10100000732070657220756E69743A0A007C3C3EEC
:101010005E2B3D3F2F5B5D3B2C2A225C00457272AC
:101020006F722077726974696E6720746F2045450E
:1010300050524F4D210A004E6F205344206361727D
:1010400064005072696E742066726F6D20534400A4
:1010500053746F70207072696E7400526573756D91
:1010600065207072696E74005061757365207072CE
:10107000696E7400436F6E74726F6C0050726570AD
:101080006172650054756E6500496E666F2073630A
:101090007265656E00466C6F7700466C6F77004630
:1010A000616E2073706565640046616E20737065C3
:1010B00065640042656400426564004E6F7A7A6C34
:1010C00065004E6F7A7A6C650053706565640053F5
:1010D00070656564004D61696E0050726568656198
:1010E0007420504C4120426564005072656865610F
:1010F0007420504C410050726570617265005072EE
:1011000065686561742041425320426564005072F5
:101110006568656174204142530050726570617268
:1011200065004D34323800436F6F6C646F776E002A
:101130005072656865617420414253005072656861
:1011400065617420504C41004D383400446973612E
:10115000626C65207374657070657273004D6F7694
:101160006520617869730053657420686F6D652030
:101170006F66667365747300473238004175746F2B
:1011800020686F6D65004D61696E004A3031004323
:101190006172642072656D6F766564004A3030005C
:1011A0004361726420696E73657274656400000047
:1011B0002100240027002A002D0030003300010107
:1011C0000000040107010A0100002000230026009E
:1011D00029002C002F00320000010000030106014D
:1011E000090100000A0B02090C0D0E080703040197
:1011F00000000000000000000000000000000000EF
:1012000000000000000000000000000000001211BB
:1012100010000000000000000000000000000000BE
:10122000000000000000000024F4D43050C38E20E1
:10123000C2A24017828B7011127A910D816CD90A6B
:10124000A861E108C7586607615143061E4B5D055A
:10125000C145A7041A411104093D980371393103AE
:101260004036DB0265339102D4305402802E1D02D9
:10127000632CEE01752AC501B028A0011027810159
:101280008F2564012B244B01E0223401AC211F0186
:101290008D200D01801FFC00841EED00971DDF00D6
:1012A000B81CD200E61BC600201BBC00641AB200AA
:1012B000B219A8000A19A0006A189900D117910064
:1012C00040178B00B516840031167E00B3157900E7
:1012D0003A157300C7146F0058146A00EE136600C5
:1012E0008813630025135E00C7125B006C12570061
:1012F00015125400C111510070114F0021114B0003
:10130000D61049008D1047004610440002104200DC
:10131000C00F4000800F3E00420F3C00060F3B0014
:10132000CB0E3800930E37005C0E3500270E3400CC
:10133000F30D3200C10D3100900D3000600D2E0014
:10134000320D2D00050D2C00D90C2B00AE0C290000
:10135000850C29005C0C2700350C27000E0C26009C
:10136000E80B2400C40B2400A00B23007D0B2300FA
:101370005A0B2100390B2100180B2000F80A1F001E
:10138000D90A1E00BB0A1E009D0A1D00800A1D000E
:10139000630A1C00470A1B002C0A1B00110A1A00D2
:1013A000F7091A00DD091900C4091900AB09190071
:1013B000920917007B091800630917004C091600F1
:1013C00036091600200916000A091500F50815004F
:1013D000E0081400CC081400B8081400A408140095
:1013E000900813007D0812006B08130058081200C3
:1013F00046081200340811002308110012081100D9
:1014000001081100F0071000E0071000D0071000DD
:10141000C0071000B0070F00A107100091070E00D1
:1014200083070F0074070F0065070E0057070E00B3
:1014300049070E003B070D002E070E0020070D0088
:1014400013070D0006070D00F9060C00ED060D0050
:10145000E0060C00D4060C00C8060C00BC060C000C
:10146000B0060C00A4060B0099060C008D060B00BC
:1014700082060B0077060B006C060B0061060A0063
:1014800057060B004C060A0042060A0038060A00FE
:101490002E060A0024060A001A060A001006090091
:1014A00007060A00FD050900F4050900EB0509001F
:1014B000E2050900D9050900D0050900C7050900A2
:1014C000BE050900B5050800AD050800A505090021
:1014D0009C050800940508008C0508008405080098
:1014E0007C050800740508006C0507006505080008
:1014F0005D050700560508004E0507004705070073
:101500004005080038050700310507002A050700D7
:10151000230507001C050600160507000F05070038
:101520000805060002050700FB040600F504070095
:10153000EE040600E8040600E2040700DB040600EF
:10154000D5040600CF040600C9040600C304060043
:10155000BD040600B7040600B1040500AC04060093
:10156000A6040600A00405009B04060095040500DF
:10157000900406008A040500850405008004060026
:101580007A04050075040500700405006B0405006D
:1015900066040500610405005C04050057040500AD
:1015A000520405004D0405004804050043040500ED
:1015B0003E0404003A04050035040500300404002C
:1015C0002C04050027040400230405001E04040065
:1015D0001A04040016040500110404000D0404009C
:1015E000090405000404040000040400FC030400D2
:1015F000F8030400F4030400F0030400EC03040007
:10160000E8030400E4030400E0030400DC03040036
:10161000D8030400D4030400D0030400CC03040066
:10162000C8030300C503030024F404D9201BC40C21
:101630005C0E9804C4095F0265077101F405F900A6
:10164000FB04B30048048700C10369005803550038
:1016500003034500BE023A008402310053022A000F
:101660002902250004022000E4011C00C801190021
:10167000AF011700980114008401130071011000DC
:101680006101100051010E0043010D0036010B00F5
:101690002B010B0020010B00150109000C010900B2
:1016A00003010800FB000800F3000800EB0007003E
:1016B000E4000600DE000600D8000600D2000600A6
:1016C000CC000500C7000500C2000500BD000400F5
:1016D000B9000400B5000400B1000400AD0004002E
:1016E000A9000400A5000300A20003009F0004005D
:1016F0009B00030098000300950002009300030084
:10170000900003008D0002008B000300880002009F
:101710008600020084000300810002007F000200B6
:101720007D0002007B0002007900020077000100CA
:1017300076000200740002007200010071000200D5
:101740006F0002006D0001006C0002006A000100E1
:1017500069000200670001006600010065000100E9
:1017600064000200620001006100010060000100ED
:101770005F0002005D0001005C0001005B000100F1
:101780005A000100590001005800010057000100F3
:1017900056000100550001005400010053000000F4
:1017A00053000100520001005100010050000100EF
:1017B0004F0001004E0000004E0001004D000100EE
:1017C0004C0001004B0000004B0001004A000100EA
:1017D00049000100480000004800010047000100E6
:1017E00046000000460001004500000045000100E1
:1017F00044000100430000004300010042000000DB
:1018000042000100410000004100010040000100D1
:101810003F0000003F0001003E0000003E000100CC
:101820003D0000003D0001003C0000003C000000C5
:101830003C0001003B0000003B0001003A000000BA
:101840003A000100390000003900010038000000B2
:1018500038000000380001003700000037000100A8
:1018600036000000360000003600010035000000A0
:101870003500000035000100340000003400000095
:101880003400010033000000330000003300010089
:101890003200000032000000320001003100000080
:1018A0003100000031000100300000003000000075
:1018B000300001002F0000002F0000002F0000006A
:1018C0002F0001002E0000002E0000002E0001005D
:1018D0002D0000002D0000002D0000002D00010053
:1018E0002C0000002C0000002C0000002C00010047
:1018F0002B0000002B0000002B0000002B0001003B
:101900002A0000002A0000002A0000002A0001002E
:101910002900000029000000290000002900000023
:101920002900010028000000280000002800000015
:101930002800000028000100270000002700000008
:1019400027000000270000002700010026000000FB
:1019500026000000260000002600000026000100EE
:1019600025000000250000002500000025000000E3
:1019700025000000250001002400000024000000D4
:1019800024000000240000002400010023000000C7
:1019900023000000230000002300000023000000BB
:1019A00023000000230001002200000022000000AC
:1019B000220000002200000022000000220001009E
:1019C0002100000021000000210000002100000093
:1019D0002100000021000000210001002000000083
:1019E0002000000020000000200000002000000077
:1019F0002000000020000000200001001F00000067
:101A00001F0000001F0000001F0000001F0000005A
:101A10001F0000001F0001001E0000001E0000004B
:101A20001E0000001E0000004D38342058205920B0
:101A30005A2045006265640A002C2073797374652E
:101A40006D2073746F7070656421204865617465E2
:101A5000725F49443A200020496E76616C696420C7
:101A60006578747275646572200000005743000049
:101A7000574300004E430000A0C0000000000000DB
:101A800000002042403A0020403A00202F0020422F
:101A90003A00202F0020543A0042656420646F6EA3
:101AA000652E004A3039003F0A0020573A0042654F
:101AB000642048656174696E672E004A30380033CF
:101AC00044205072696E746572204F66662E002045
:101AD0005A3A0020593A0020436F756E7420583AE4
:101AE000200020453A00205A3A0020593A00583A3E
:101AF000004649524D574152455F4E414D453A4D82
:101B000061726C696E20312E312E302D5243382097
:101B1000284769746875622920534F555243455FC1
:101B2000434F44455F55524C3A68747470733A2F72
:101B30002F6769746875622E636F6D2F4D61726CCB
:101B4000696E4669726D776172652F4D61726C695D
:101B50006E2050524F544F434F4C5F56455253499D
:101B60004F4E3A312E30204D414348494E455F5447
:101B70005950453A3344205072696E74657220455D
:101B8000585452554445525F434F554E543A3120B4
:101B9000555549443A63656465326132662D343186
:101BA00061322D343734382D396231322D63353579
:101BB0006336326633363766660A001000C9021093
:101BC000012C014001220170011801B0010E01F049
:101BD0000104015002FA00B002F0003003E600D028
:101BE00003DC009004D2007005C800A006BE00000F
:101BF00008B400B009AA00D00BA000600E960060E7
:101C0000118C000015820020197800C01D6E00A004
:101C1000226400B0275A00902C500000314600E0AA
:101C2000343C0010383200903A2800603C1E00A07E
:101C30003D1400803E0A00203F0000656E7175650E
:101C40007565696E672022006563686F3A0001025E
:101C500010202008081020401020408002010201BE
:101C60000804020101020408102040808040201076
:101C700008040201800402018040201008040201CF
:101C80000804020101020408102040800102040837
:101C90001020408000002200250028002B002E008C
:101CA0003100340002010000050108010B010505A7
:101CB0000505070508080808020202020A0A0808C2
:101CC00004040404010101010101010103030303F0
:101CD00003030303040707070C0C0C0C0C0C0C0C7F
:101CE0000202020206060606060606060B0B0B0B90
:101CF0000B0B0B0B0257726974696E6720746F20AF
:101D000066696C653A20004A3231006F70656E205A
:101D10006661696C65642C2046696C653A20004AEE
:101D20003231006F70656E206661696C65642C20CD
:101D300046696C653A20004A32300046696C65207D
:101D400073656C65637465640A002053697A653A4B
:101D5000200046696C65206F70656E65643A2000EE
:101D60004A3231006F70656E206661696C65642C63
:101D70002046696C653A20002066696C653A20004F
:101D80004E6F7720002220706F73002220706172E6
:101D9000656E743A2200535542524F5554494E4590
:101DA0002043414C4C207461726765743A22004BA9
:101DB000494C4C45442E2000747279696E6720743A
:101DC0006F2063616C6C207375622D67636F64654F
:101DD0002066696C6573207769746820746F6F2062
:101DE0006D616E79206C6576656C732E204D41585F
:101DF000206C6576656C2069733A0046696C2E200C
:101E00004469612E0046696C2E204469612E004FA2
:101E10006666004F6E20004520696E206D6D3300B0
:101E2000436F6E74726F6C0043616E6E6F742065E9
:101E30006E746572207375626469723A2000052EB3
:101E40002E004D61696E0020746F6F206C6F6E679D
:101E500020657874727573696F6E2070726576652F
:101E60006E7465640A004A31330020636F6C64202D
:101E7000657874727573696F6E2070726576656EC1
:101E80007465640A00526573656E643A20006F6B76
:101E9000004A3135004A3233004B494C4C45442E00
:101EA00020004B494C4C45442E200045737465700E
:101EB000732F6D6D004573746570732F6D6D005ACF
:101EC00073746570732F6D6D005A73746570732F22
:101ED0006D6D005973746570732F6D6D0059737457
:101EE0006570732F6D6D005873746570732F6D6D11
:101EF000005873746570732F6D6D00412D7472619D
:101F000076656C00412D74726176656C00412D72AE
:101F100065747261637400412D72657472616374DB
:101F200000416D6178204500416D61782045004198
:101F30006D6178205A00416D6178205A00416D61D1
:101F400078205900416D6178205900416D617820F9
:101F50005800416D61782058005654726176206DAA
:101F6000696E005654726176206D696E00566D6917
:101F70006E00566D696E00566D6178204500566D95
:101F80006178204500566D6178205A00566D617861
:101F9000205A00566D6178205900566D617820599D
:101FA00000566D6178205800566D617820580056B3
:101FB000652D6A65726B0056652D6A65726B0056F9
:101FC0007A2D6A65726B00567A2D6A65726B0056BF
:101FD000792D6A65726B0056792D6A65726B0056B1
:101FE000782D6A65726B0056782D6A65726B0041B8
:101FF0006363656C00416363656C00436F6E74726C
:102000006F6C00506C656173652072657365740058
:102010005052494E5445522048414C54454400507A
:1020200072696E7465722068616C7465642E206BD1
:10203000696C6C28292063616C6C6564210A00005E
:1020400000A0C000000000000000005761726E692F
:102050006E673A20486F6D696E672042756D70201B
:1020600044697669736F72203C20310A000000A039
:10207000400000A0400000004000005C430000570A
:102080004300004E43FFFFFF4E6F204C696E6520FA
:102090004E756D6265722077697468206368656348
:1020A0006B73756D2C204C617374204C696E653AAE
:1020B00020004B494C4C45442E200053544F505067
:1020C00045442E20005072696E7465722073746FDF
:1020D000707065642064756520746F206572726F1E
:1020E00072732E2046697820746865206572726F5D
:1020F0007220616E6420757365204D393939207402
:102100006F20726573746172742E202854656D702F
:102110006572617475726520697320726573657488
:102120002E20536574206974206166746572207274
:10213000657374617274696E67290A004E6F20437B
:102140006865636B73756D2077697468206C696E60
:1021500065206E756D6265722C204C617374204C25
:10216000696E653A2000636865636B73756D206DF9
:1021700069736D617463682C204C617374204C69C1
:102180006E653A20004C696E65204E756D62657211
:10219000206973206E6F74204C617374204C696EDB
:1021A00065204E756D6265722B312C204C61737405
:1021B000204C696E653A20004D313130004A31348F
:1021C000004D3331004D383420582059205A2045D5
:1021D0000053442072656164206572726F720A0058
:1021E000446F6E65207072696E74696E67206669EF
:1021F0006C650A00473930004731205A2D323000D3
:1022000053442063617264206F6B0A006F70656EC7
:10221000526F6F74206661696C65640A00766F6C3A
:10222000756D652E696E6974206661696C65640AF6
:10223000004572726F723A00534420696E697420CF
:102240006661696C0A006175746F25692E67004DBF
:102250003234004D3233202573002EC582C711243D
:102260001FBECFEFD1E2DEBFCDBF00E00CBF14E058
:10227000A0E0B2E0E8EFFBEA01E00BBF02C007908C
:102280000D92A83CB107D9F725E1A8ECB4E001C054
:102290001D92A63EB207E1F711E1CEE2D1E100E0E6
:1022A00006C021970109802FFE010E944BD5CD3237
:1022B000D10780E00807A9F70E940FBE0C94EBD568
:1022C0000C9400002F923F924F925F926F927F92F8
:1022D0008F929F92AF92BF92CF92DF92EF92FF9236
:1022E0000F931F93CF93DF93CDB7DEB7CF58D109AC
:1022F0000FB6F894DEBF0FBECDBF00913E0820E6BA
:10230000029F800111240254194F1093F804009386
:10231000F70480913D1280FF18C0E8E4FCE184914D
:102320007F013FEFE31AF30A882321F00E94AFBB3D
:10233000F701F5CFD8018D918D01882319F00E9406
:10234000AFBBF8CF8AE00E94AFBB2091F704309179
:10235000F804F90180812F5F3F4F8032D1F3F09371
:10236000F804E093F7048E3469F0D090F704C0903D
:10237000F8046AE270E08D2D9C2D0E9499D500979B
:10238000D1F420C0818190ED980F9A3010F08D32F9
:1023900061F73296DF0131962C9120532A30D0F329
:1023A000CD01FC01019620812032D9F3F093F8048D
:1023B000E093F704DACFFC0131968291803231F05C
:1023C0008A3221F0AD2DBC2D9D9102C01082F5CF37
:1023D000FD01808111968032D9F380538A3010F04C
:1023E0000C940E2EE12CF12C2AE02E9DB0012F9D95
:1023F000700D11247B01B0E3EB1AF1088191E80E16
:10240000F11C87FDFA94808180538A3070F38F012C
:102410003196D8018C918032D1F31093F00400935F
:10242000EF049D3411F40C94371B943511F40C9483
:10243000F12B973411F00C940E2EB4E0EB16F1044E
:1024400009F492C640F480919B02F2E0EF16F10489
:1024500008F030C121C02AE5E216F10411F40C9411
:10246000A61A60F445E0E416F10409F4BBC65CE189
:10247000E516F10409F446C70C94152C8BE5E81613
:10248000F10411F40C94AA1A9CE5E916F10411F474
:102490000C94AF1A0C94152C882311F40C94152C61
:1024A0000E948C7F8091D9048130B1F48091DF0447
:1024B000882391F020E030E040EA51E4609153132A
:1024C0007091541380915513909156130E9429CE08
:1024D00087FF02C00C94152C87E493E10E942EA67E
:1024E0000E94A4BB80913D1283FD93C0C090531302
:1024F000D0905413E0905513F09056132091B306EA
:102500003091B4064091B5065091B606C701B601A8
:102510000E9429CE882309F47CC080913812811151
:1025200034C02091DF023091E0024091E1025091ED
:10253000E2026091370E7091380E8091390E9091C1
:102540003A0E0E9429CE87FF20C0C092B306D092D7
:10255000B406E092B506F092B606E8E4FCE1849198
:102560008F010F5F1F4F882321F00E94AFBBF8013E
:10257000F6CFE6E5F2E084918F010F5F1F4F8823CD
:1025800021F00E94AFBBF801F6CFC0905313D0905A
:102590005413E0905513F09056132091B3063091E8
:1025A000B4064091B5065091B606C701B6010E9427
:1025B0003FD20E9484D397FF07C090958095709575
:1025C00061957F4F8F4F9F4F693C71058105910544
:1025D00004F1C092B306D092B406E092B506F09230
:1025E000B606E8E4FCE184918F010F5F1F4F88235A
:1025F00021F00E94AFBBF801F6CFE7E3F2E084914F
:102600008F010F5F1F4F882321F00E94AFBBF8019D
:10261000F6CF2091471330914813409149135091C0
:102620004A136091A7067091A8068091A90690911F
:10263000AA060E9429CE81111DC020914B13309112
:102640004C1340914D1350914E136091AB06709115
:10265000AC068091AD069091AE060E9429CE811104
:1026600009C0609100027091010280910202909174
:1026700003021AC060916A0270916B02072E000C6F
:10268000880B990B0E942FCE2091000230910102FD
:1026900040910202509103020E948ECE2AE037ED53
:1026A00043E25CE30E948ECE0E946B7C0E94617CC0
:1026B0000C94152C882311F40C94152C11E0A2E035
:1026C000EA16F10409F010E00E948C7F82E50E9476
:1026D000F07C882309F452C10E9467B16B017C0130
:1026E0004090A7065090A8066090A9067090AA0690
:1026F0002091AB063091AC064091AD065091AE06EC
:102700002BAF3CAF4DAF5EAF809147139091481314
:10271000A0914913B0914A1323968CAF9DAFAEAFF1
:10272000BFAF239720914B1330914C1340914D1321
:1027300050914E132B962CAF3DAF4EAF5FAF2B9702
:1027400020E030E0A901C701B6010E9429CE88230C
:1027500009F4F0C4A301920123966CAD7DAD8EAD5A
:102760009FAD23970E9429CE81110FC02BAD3CADA8
:102770004DAD5EAD2B966CAD7DAD8EAD9FAD2B9707
:102780000E9429CE882309F4D5C420E030E0A901B5
:10279000C701B6010E9429CE881F8827881F1813F9
:1027A0000BC080E090E0A0E8BFE367968CAF9DAFE0
:1027B000AEAFBFAF67970AC020E030E040E85FEB04
:1027C00067962CAF3DAF4EAF5FAF6797A301920105
:1027D00023966CAD7DAD8EAD9FAD23970E943FD209
:1027E0002F966CAF7DAF8EAF9FAF2F972BAD3CADCB
:1027F0004DAD5EAD2B966CAD7DAD8EAD9FAD2B9787
:102800000E943FD263966CAF7DAF8EAF9FAF639750
:102810002F962CAD3DAD4EAD5FAD2F97CA01B901DE
:102820000E948ECE4B015C0163962CAD3DAD4EAD4A
:102830005FAD6397CA01B9010E948ECE9B01AC01C6
:10284000C501B4010E9440D20E94ABD427966CAF60
:102850007DAF8EAF9FAF279720E030E040E05FE391
:102860000E948ECE4B015C01A7019601C701B60103
:102870000E948ECE6B017C01A5019401C501B401BB
:102880000E948ECE9B01AC01C701B6010E943FD2CF
:102890000E94ABD49B01AC0167966CAD7DAD8EAD53
:1028A0009FAD67970E948ECE4B015C0123962CADA5
:1028B0003DAD4EAD5FAD2397C301B2010E9440D242
:1028C00020E030E040E05FE30E948ECE6B017C01AF
:1028D00063966CAD7DAD8EAD9FAD63979058279696
:1028E0002CAD3DAD4EAD5FAD27970E941CD39B0133
:1028F000AC01C501B4010E948ECE9B01AC01C701A1
:10290000B6010E9440D2A30192010E943FD26B0106
:102910007C012B962CAD3DAD4EAD5FAD2B976BADD5
:102920007CAD8DAD9EAD0E9440D220E030E040E015
:102930005FE30E948ECE2B013C0127962CAD3DAD6E
:102940004EAD5FAD27972F966CAD7DAD8EAD9FAD33
:102950002F970E941CD39B01AC01C501B4010E94BA
:102960008ECE9B01AC01C301B2010E9440D22BADBF
:102970003CAD4DAD5EAD0E943FD214C089E40E94D3
:10298000F07C882329F00E9467B16B017C0103C0B1
:10299000C12CD12C76018AE40E94F07C8823D9F0E6
:1029A0000E9467B16BAF7CAF8DAF9EAF20E030E08F
:1029B000A901C701B6010E9429CE81111AC020E0E9
:1029C00030E0A9016BAD7CAD8DAD9EAD0E9429CEEE
:1029D00081110FC0AFC320E030E0A901C701B601EB
:1029E0000E9429CE882309F4A5C31BAE1CAE1DAEE0
:1029F0001EAEA7019601C701B6010E948ECE4B0103
:102A00005C012BAD3CAD4DAD5EADCA01B9010E947C
:102A10008ECE9B01AC01C501B4010E9440D20E9440
:102A2000ABD4AF966CAF7DAF8EAF9FAFAF978091B9
:102A3000A7069091A806A091A906B091AA0627968C
:102A40008CAF9DAFAEAFBFAF2797A7019601BC017A
:102A5000CD010E9440D267966CAF7DAF8EAF9FAF25
:102A600067972091AB063091AC064091AD0650912E
:102A7000AE062F962CAF3DAF4EAF5FAF2F972BAD6D
:102A80003CAD4DAD5EAD2F966CAD7DAD8EAD9FADC9
:102A90002F970E9440D26B966CAF7DAF8EAF9FAFE9
:102AA0006B978091AF069091B006A091B106B0915E
:102AB000B2066F968CAF9DAFAEAFBFAF6F979C0164
:102AC000AD0160914F13709150138091511390910B
:102AD00052130E943FD263966CAF7DAF8EAF9FAF13
:102AE0006397209153133091541340915513509193
:102AF0005613E3962CAF3DAF4EAF5FAFE397809197
:102B0000B3069091B406A091B506B091B606A3960F
:102B10008CAF9DAFAEAFBFAFA397A7019601505842
:102B200023962CAF3DAF4EAF5FAF23978BAD9CADDF
:102B3000ADADBEADB0582B968CAF9DAFAEAFBFAFB5
:102B40002B9720914713309148134091491350918E
:102B50004A13A7962CAF3DAF4EAF5FAFA7976796CE
:102B60002CAD3DAD4EAD5FAD6797A7966CAD7DAD1D
:102B70008EAD9FADA7970E943FD26B017C018091E3
:102B80004B1390914C13A0914D13B0914E13AB96F3
:102B90008CAF9DAFAEAFBFAFAB976B962CAD3DADDD
:102BA0004EAD5FAD6B97BC01CD010E943FD24B0192
:102BB0005C01A701960123966CAD7DAD8EAD9FADF6
:102BC00023970E948ECE2B013C01A50194012B96E8
:102BD0006CAD7DAD8EAD9FAD2B970E948ECE9B01CF
:102BE000AC01C301B2010E9440D22B013C01A501FE
:102BF000940123966CAD7DAD8EAD9FAD23970E9461
:102C00008ECE4B015C01A70196012B966CAD7DAD7C
:102C10008EAD9FAD2B970E948ECE9B01AC01C5015E
:102C2000B4010E943FD2A30192010E94B3D26B0172
:102C30007C0120E030E0A9010E9429CE87FF0AC074
:102C40002BED3FE049EC50E4C701B6010E9440D2B1
:102C50006B017C01112351F02BED3FE049EC50E476
:102C6000C701B6010E943FD26B017C0120E030E039
:102C7000A901C701B6010E9429CE81112AC0A796D9
:102C80002CAD3DAD4EAD5FADA79727966CAD7DAD3C
:102C90008EAD9FAD27970E9429CE81111AC0AB96A9
:102CA0002CAD3DAD4EAD5FADAB972F966CAD7DAD10
:102CB0008EAD9FAD2F970E9429CE81110AC02BEDBA
:102CC0003FE049EC50E4C701B6010E9440D26B01DD
:102CD0007C01AF962CAD3DAD4EAD5FADAF97C7015A
:102CE000B6010E948ECE9B01AC010E948ECE4B019C
:102CF0005C0163962CAD3DAD4EAD5FAD6397CA01EF
:102D0000B9010E948ECE9B01AC01C501B4010E94A5
:102D100040D20E94ABD44B015C012FE632E143E884
:102D20005AE30E9429CE87FD01C2C501B4010E9469
:102D3000B5D30E9489D32D967FAF6EAF2D97DB015F
:102D4000AB2B31F4E1E0F0E02D96FFAFEEAF2D9725
:102D50002D962EAD3FAD2D97B90180E090E00E94F9
:102D60002DCE4B015C019B01AC01C701B6010E9455
:102D70001CD327966CAF7DAF8EAF9FAF2797A50171
:102D8000940163966CAD7DAD8EAD9FAD63970E944F
:102D90001CD3A7966CAF7DAF8EAF9FAFA797A396BE
:102DA0002CAD3DAD4EAD5FADA397E3966CAD7DAD63
:102DB0008EAD9FADE3970E943FD2A50194010E9482
:102DC0001CD3AB966CAF7DAF8EAF9FAFAB97279602
:102DD0002CAD3DAD4EAD5FAD2797CA01B9010E9444
:102DE0008ECE20E030E040E05FE30E948ECE9B017B
:102DF000AC0160E070E080E89FE30E943FD2639600
:102E00006CAF7DAF8EAF9FAF63976F968CAD9DAD6E
:102E1000AEADBFAD6F9789879A87AB87BC87A39606
:102E20002CAD3DAD4EAD5FADA3972D873E874F874F
:102E3000588B60916A0270916B02072E000C880B10
:102E4000990B0E942FCE20910002309101024091F7
:102E50000202509103020E948ECE2AE037ED43E237
:102E60005CE30E948ECE6F966CAF7DAF8EAF9FAF4E
:102E70006F970E94F6699B01AC0128533F4F4F4F5B
:102E80005F4FA3962CAF3DAF4EAF5FAFA3974FAC54
:102E900021965FAC219722966FAC229723967FAC48
:102EA000239722242394312CD12C2D968EAD9FADC7
:102EB0002D972816390609F425C10E94EC400E947E
:102EC000F669DC01CB01A3962CAD3DAD4EAD5FADF7
:102ED000A397821B930BA40BB50BB7FD10C00E94E8
:102EE000F6699B01AC0128533F4F4F4F5F4FA396AC
:102EF0002CAF3DAF4EAF5FAFA3970E94F6A1D39426
:102F000038E13D150CF44BC063962CAD3DAD4EAD94
:102F10005FAD63972B966CAD7DAD8EAD9FAD2B975E
:102F20000E948ECE4B015C0127962CAD3DAD4EAD7F
:102F30005FAD2797B201C3010E948ECEA501940117
:102F40000E9440D27B018C0163962CAD3DAD4EAD0D
:102F50005FAD6397B201C3010E948ECE4B015C014D
:102F600027962CAD3DAD4EAD5FAD27972B966CAD42
:102F70007DAD8EAD9FAD2B970E948ECE9B01AC0197
:102F8000C501B4010E943FD22B013C01C701D80109
:102F90002B968CAF9DAFAEAFBFAF2B9756C0B10194
:102FA00080E090E00E942DCE27962CAD3DAD4EAD39
:102FB0005FAD27970E948ECE4B015C010E9419D312
:102FC0006B017C01C501B4010E94A1D44B015C01DD
:102FD000A701960123966CAD7DAD8EAD9FAD239775
:102FE0000E948ECE2B013C01A50194016BAD7CADFE
:102FF0008DAD9EAD0E948ECE9B01AC01C301B2018E
:103000000E9440D22B013C01A501940123966CAD96
:103010007DAD8EAD9FAD23970E948ECE4B015C019E
:10302000A70196016BAD7CAD8DAD9EAD0E948ECE9D
:103030009B01AC01C501B4010E943FD22B966CAF3D
:103040007DAF8EAF9FAF2B97D12C9201A3016796D6
:103050006CAD7DAD8EAD9FAD67970E9440D2698308
:103060007A838B839C832B962CAD3DAD4EAD5FADAB
:103070002B976B966CAD7DAD8EAD9FAD6B970E941F
:1030800040D26D837E838F839887A7962CAD3DAD0C
:103090004EAD5FADA79769857A858B859C850E942B
:1030A00040D269877A878B879C87AB962CAD3DADE4
:1030B0004EAD5FADAB976D857E858F8598890E94FB
:1030C00040D26D877E878F87988BCE0101960E94B4
:1030D0002EA6C090E9046F96ECACFDAC0EAD1FAD12
:1030E0006F979E01235F3F4FAE01475F5F4FBE0169
:1030F0006B5F7F4FCE0101960E9436954FEF241AE9
:10310000340AD3CEC090E9046F96ECACFDAC0EADA2
:103110001FAD6F9723E533E14FE453E16BE473E1B7
:1031200087E493E10E9436950E94617C0E94A4BBD3
:103130000C94152CE1E3F2E284918F010F5F1F4F95
:10314000882321F00E94AFBBF801F6CFE1E7F2E05F
:1031500084918F010F5F1F4F882311F40C94152C5D
:103160000E94AFBBF801F4CF80E50E94F07C882379
:1031700029F00E945CB16B017C0103C0C12CD12CF1
:10318000760183E50E94F07C882321F00E94FE7F77
:103190006B017C010E94E3710E94A4BB8091C91263
:1031A0009091CA12A091CB12B091CC12C80ED91E28
:1031B000EA1EFB1E80919C02811105C060E087E839
:1031C00092E00E94C2700E94F669DC01CB018C196A
:1031D0009D09AE09BF09B7FD02C00C94152C0E94D1
:1031E000F6A1F1CF8C9A8091E0048823C1F0E0E948
:1031F000F2E084918F01882351F0082E000C990B86
:103200000E9430860F5F1F4FF8018491F4CF8DE04C
:1032100090E00E9430868AE090E00E9430868091A3
:10322000DF04882309F468C084E190E099A388A3AF
:1032300044E0BE016F5F7F4FCE0180960E94205513
:1032400044E06BED74E0CE0180960E94205544E08E
:1032500068EC74E0CE0180960E94205544E06CEC4E
:1032600074E0CE0180960E94205544E060ED74E049
:10327000CE0180960E94205544E064ED74E0CE01BA
:1032800080960E9420558091DB049091DC04A091EF
:10329000DD04B091DE0485369105A105B1055CF031
:1032A0000597A109B1098093DB049093DC04A093F6
:1032B000DD04B093DE044091DB045091DC046091A6
:1032C000DD047091DE044093CD115093CE116093D4
:1032D000CF117093D0118CE191E10E94995981E056
:1032E0008093DA048093D9041092DF0482EB90E09B
:1032F0009093DF158093DE15669B02C00C94182C0A
:103300000C94152C0E94E371409000025090010231
:1033100060900202709003024092F3045092F40411
:103320006092F5047092F60480916A0290916B02AB
:103330009093F2048093F10484E690E090936B0202
:1033400080936A020E94A4BB11E010930B0288E5EF
:103350000E94F07C282E89E50E94F07C082F8AE5E7
:103360000E94F07C382E211005C0011105C0982F55
:10337000912705C0011102C090E001C0982F9093E1
:10338000040280E1E7EAF6E0A7E4B3E101900D92E0
:103390008A95E1F7911105C0211003C0002309F4BB
:1033A00093C020E030E040E85FE36091A3067091B5
:1033B000A4068091A5069091A6060E9440D2209175
:1033C00043133091441340914513509146130E948A
:1033D00040D26B017C0160934F1370935013809324
:1033E0005113909352138090AF069090B006A09026
:1033F000B106B090B206A50194010E9466D41816D9
:103400000CF062C0A7019601C501B4010E9429CE4B
:1034100087FF16C080E090E0A0ECB0E4809300024B
:1034200090930102A0930202B0930302C092AF06F0
:10343000D092B006E092B106F092B2060E94847C6F
:1034400085E595E5A5E0B3E4809300029093010241
:10345000A0930202B09303020E94847CC0904F1399
:10346000D0905013E0905113F0905213A7019601A1
:103470006091AF067091B0068091B1069091B2064E
:103480000E9466D41816B4F480E090E0A0ECB0E49A
:103490008093000290930102A0930202B093030272
:1034A000C092AF06D092B006E092B106F092B2069A
:1034B0000E94847C0E94E3714092000250920102BB
:1034C000609202027092030280910402811102C094
:1034D000222021F080E090E00E9449AF8091040218
:1034E000811102C0002321F081E090E00E9449AFE9
:1034F00080910402811102C0332021F082E090E02B
:103500000E9449AF0E9484B580910E0980930B02FE
:103510008091F3049091F404A091F504B091F60425
:103520008093000290930102A0930202B0930302E1
:103530008091F1049091F20490936B0280936A025F
:103540000E94A4BB0E94737A0C94152C1092EE0476
:103550000C94152C81E08093EE040C94152C85E4DA
:103560000E94F07CB82E811102C00E94E3713EEEF1
:10357000832E32E0932E47EAC42E46E0D42E5BE33E
:10358000E52E53E1F52E00E010E0A12CD4018D9141
:103590004D010E94F07C882309F44EC0F601208181
:1035A000318142815381C457DF4F2883CC58D040AA
:1035B000C357DF4F3883CD58D040C257DF4F4883C1
:1035C000CE58D040C157DF4F5883CF58D0400E94CB
:1035D00067B1D6016D937D938D939C931397C457D8
:1035E000DF4F2881CC58D040C357DF4F3881CD58AA
:1035F000D040C257DF4F4881CE58D040C157DF4F2F
:103600005881CF58D04003301105B1F00E943FD20D
:103610009B01AC01F70160817181828193810E94DD
:1036200040D2D7016D937D938D939C931397C801DE
:103630000E94A37CAA24A3940F5F1F4FB4E0CB0E7B
:10364000D11CE4E0EE0EF11C0430110509F09ECF10
:10365000AA2019F00E9484B506C0BB2021F083EB9C
:1036600096E00E94618C0E94737A0C94152CFFE600
:10367000EF16F10409F435C508F0C6C03AE2E316C6
:10368000F10409F4D1C408F06DC057E1E516F10466
:1036900009F47FC2A8F592E1E916F10409F4C9C75B
:1036A000F8F4B2E0EB16F10408F4BFC1E1E1EE1664
:1036B000F10411F00C94152C60E086EC92E00E946D
:1036C000C2705F988A9847989FB7F89480910801D4
:1036D0008E7F809308019FBF479812980C94152CF9
:1036E000F5E1EF16F10409F44AC208F04CC234E1E6
:1036F000E316F10411F00C94152CEEEDF2E009C282
:103700004BE1E416F10409F455C268F489E1E816C6
:10371000F10409F442C208F049C20E9473B90E9440
:103720009C8C0C94152CAEE1EA16F10409F47EC2CF
:1037300068F4ECE1EE16F10411F00C94152C40E065
:1037400060E0C8010E949F880C94152CFFE1EF16E1
:10375000F10409F4C1C320E2E216F10409F474C3D0
:103760000C94152C35E5E316F10409F466C710F541
:1037700051E5E516F10409F453C788F49CE4E91611
:10378000F10409F455C4ADE4EA16F10409F454C493
:10379000BBE4EB16F10411F00C94152C45C4E3E5E1
:1037A000EE16F10409F440C708F043C71092ED0487
:1037B0000C94152C2AE6E216F10409F408C788F4E3
:1037C00048E6E416F10409F43BC408F017C58CE59B
:1037D000E816F10411F00C94152C0E94037D0C9452
:1037E000152C9CE6E916F10409F4E7C408F414C7A3
:1037F000BDE6EB16F10409F422C5EEE6EE16F1047F
:1038000009F45CC40C94152CF3EDEF16F10411F4DB
:103810000C94E12508F07FC03CE8E316F10409F4BC
:10382000D4C468F555E7E516F10409F412C7A0F40D
:1038300092E7E916F10409F404C7A3E7EA16F104D4
:1038400009F403C7B0E7EB16F10411F00C94152C42
:1038500087EC93E00E94ABB0E8E7EE16F10409F4C0
:1038600082C7F9E7EF16F10409F484C727E7E216E7
:10387000F10411F00C94152CE6E3F4E0F0C639ECF9
:10388000E316F10411F40C947E2488F45EEBE51643
:10389000F10409F498C688ECE816F10409F4E5C7C8
:1038A00091E9E916F10411F00C94152C69C7ACEC00
:1038B000EA16F10411F40C94B42488F4EBECEE163F
:1038C000F10411F00C94152C96E1E92E93E1F92EF8
:1038D0000EEE12E024E0D22ED00E0C94A524FDECC6
:1038E000EF16F10411F40C941E252EECE216F104EF
:1038F00011F00C94152C1EEEA12E12E0B12E07EA49
:10390000C02E06E0D02E8BE9E82E86E0F82E00E0EF
:1039100010E00C9489253AE9E31631E0F30609F446
:1039200050C4C0F55CE2E51651E0F50611F40C94C4
:10393000CA26A0F49DEDE916F10411F40C94862634
:10394000A2EEEA16F10411F40C949F26BCEDEB16DE
:10395000F10411F00C94152C0C947926EEE2EE167D
:10396000E1E0FE0611F40C94982710F40C94F9266B
:103970002FE2E21621E0F20611F40C94092830E956
:10398000E31631E0F30611F00C94152C0E94E3715C
:103990000C94152C46EFE41641E0F40611F40C9457
:1039A000D22B18F584EFE81681E0F80611F40C9498
:1039B000CC2B10F00C94CF2BACEAEA16A1E0FA065F
:1039C00011F00C94152C87EA282E86E0382EABE9EE
:1039D000B6E0BCAFABAFE2E5F8E02196FFAFEEAFEB
:1039E000219700E010E00C94D12ABAE9EB16B2E07E
:1039F000FB0611F40C94C22548F4F7EFEF16F1E042
:103A0000FF0611F40C94D52B0C94152C20EAE21629
:103A100023E0F20609F45CC237EEE31633E0F30666
:103A200011F40C94E12B0C94152C80E50E94F07C91
:103A3000882361F00E945CB16B017C01BB24B394CC
:103A4000672B682B692B31F4B12C04C0B12CC12C2D
:103A5000D12C760183E50E94F07C882399F00E94A6
:103A6000FE7F6B017C01B1100FC0672B682B692BA7
:103A700059F4D8018C91882339F061E0C8010E9483
:103A8000D77007C0BB20A9F360E085EB92E00E94ED
:103A9000C27081E08093E1040E94E3710E94A4BBA4
:103AA000C114D104E104F104E9F08091C9129091AC
:103AB000CA12A091CB12B091CC12C80ED91EEA1E28
:103AC000FB1E0E94F669DC01CB018C199D09AE0931
:103AD000BF09B7FF1AC08091E1048823B1F00E94AA
:103AE000F6A1EFCF8091E104882319F00E94F6A19E
:103AF000F9CF8091510F60E0882319F086EA92E0B7
:103B000002C084E992E00E94C2701092E1040C9419
:103B1000152C84918F010F5F1F4F882321F00E9485
:103B2000AFBBF801F6CF1092D7111092D61140E03A
:103B300050E0BA0182E89FE00E9499596EE77FE069
:103B4000CE0101960E94635740E050E0BE016F5FD6
:103B50007F4F8FE794E00E945E86CE0101960E941F
:103B6000A3B0EFECF2E084918F010F5F1F4F882329
:103B700011F40C94152C0E94AFBBF801F4CF0E94F5
:103B8000FEB70C94152C1092510F1092520F0C94FA
:103B9000152C0E94F57B0C94152C81E08093400835
:103BA0008093BC131092510F0C94152C0E94737FBC
:103BB0000C94152C8091520F882351F1EFEEF2E016
:103BC00084918F010F5F1F4F882321F00E94AFBBAC
:103BD000F801F6CF6091CD117091CE118091CF1187
:103BE0009091D0114AE00E94DCBB8FE20E94AFBBF3
:103BF0006091C9117091CA118091CB119091CC1133
:103C00004AE00E94DCBB8AE00E94AFBB0C94152CFA
:103C1000E1E0F3E084918F010F5F1F4F882311F4DF
:103C20000C94152C0E94AFBBF801F4CF8091520F79
:103C3000882311F40C94152C8CE191E10E946759B2
:103C40008CE191E10E94B05F1092500F10924F0FE3
:103C5000E090EF04F090F0048091520F882311F46B
:103C60000C94152C0E9494881D8218861C821B823D
:103C700084EC93E09A8389838EE79FE090939E0F74
:103C800080939D0FF70180818F3209F068C06FE249
:103C900070E0C7010E9499D58C010F5F1F4F9E01F4
:103CA0002F5F3F4F49010115110509F45EC06FE216
:103CB00070E0C8010E9499D56C01009709F456C0C4
:103CC0000817190708F052C05C01A01AB10AA50133
:103CD000B801CE0180960E94C2D5E0E2F0E0EC0F80
:103CE000FD1FEA0DFB1D10828E01005E1F4FD801E3
:103CF0008D918D01882319F00E94AFBBF8CF8AE027
:103D00000E94AFBB60919D0F70919E0F6115710570
:103D100011F06C5F7F4F21E0AE01405E5F4FCE013E
:103D200005960E94B85F811112C0BE01605E7F4F90
:103D300088E393E00E94B6BB8EE20E94AFBB8AE0AC
:103D40000E94AFBBC4010E94A3B00C94152C9092AA
:103D50009E0F80929D0F86010F5F1F4FA4CF8FE9AA
:103D60009FE090939E0F80939D0F870160919D0F20
:103D700070919E0F6115710511F06C5F7F4F18A255
:103D80001BA222E0A801CE0180960E94B85F81119B
:103D900002C0F12C14C0CE0180960E948FB98823F6
:103DA000C1F361E0CE0180960E9454AC009789F384
:103DB00025EEFC0120831BA20E947757F82ECE012E
:103DC00080960E9475BBFF2009F1E2E1F3E0849147
:103DD0007F012FEFE21AF20A882321F00E94AFBB85
:103DE000F701F5CFD8018D918D01882319F00E943C
:103DF000AFBBF8CF8AE00E94AFBB1092CD111092FA
:103E0000CE111092CF111092D01118C0E0E2F3E061
:103E100084917F01BFEFEB1AFB0A882321F00E94F7
:103E2000AFBBF701F5CFF80181918F01882319F01D
:103E30000E94AFBBF8CF8EE20E94AFBBCE010196CD
:103E40000E94A3B00C94152C8091510F81110E94F7
:103E5000E3710091EF041091F00461E270E0C80199
:103E60000E9499D5009719F08C010F5F1F4F80E5D4
:103E70000E94F07C882349F0FF24F3948091E204AF
:103E80009091E3048017910708F0F12C8091520F74
:103E9000882311F40C94152C4F2D61E0C8010E9469
:103EA0009F8883E50E94F07C882349F08091E2049A
:103EB0009091E3048017910710F40C94292C0E9430
:103EC00073B9F1100C94152C0E949C8C0C94152C39
:103ED0000E94EA7B0C94152C0E943DB92CE3C22E63
:103EE000D12CE12CF12CA70196010E9404D2762E50
:103EF000672ECA01B901A70196010E9404D26B0185
:103F00007C01CA01B90128E130E040E050E00E94A4
:103F100004D24B015C01C9016DE671E00E9408D535
:103F20008E010F5F1F4F6115710599F06F927F929F
:103F3000DF92CF929F928F929F938F937F936F93F5
:103F400084E793E09F938F931F930F930E94FACD82
:103F500012C00097B1F06F927F92DF92CF929F9242
:103F60008F929F938F9384E693E09F938F931F93F9
:103F70000F930E94FACD0FB6F894DEBF0FBECDBFEF
:103F800036C081149104A104B10479F06F927F923C
:103F9000DF92CF929F928F9288E593E09F938F93C9
:103FA0001F930F930E94FACDE6CFC114D104E10410
:103FB000F10469F06F927F92DF92CF9280E593E0F7
:103FC0009F938F931F930F930E94FACDD4CF6F923C
:103FD0007F928CE493E09F938F931F930F930E94A3
:103FE000FACD0F900F900F900F900F900F9060E010
:103FF000C8010E94D770E8E4FCE184917F01BFEF23
:10400000EB1AFB0A882321F00E94AFBBF701F5CF22
:10401000B80188E893E00E94B6BB8AE00E94AFBB7B
:104020000E947BBB0C94152C0E949C8C0C94152C2C
:104030000E94D37B0C94152C0E9427810C94152C84
:1040400088E690E00E948E8081110C94152C80915E
:104050003D1283FF02C00C94152C83E50E94F07C76
:10406000882341F10E9467B10E949BB00E9467B112
:1040700020E030E04AEA52E40E9429CE18163CF0D3
:104080000E94278160E080EA93E00E94C2700E9453
:1040900067B12091370E3091380E4091390E509112
:1040A0003A0E0E9466D418162CF460E085E993E07D
:1040B0000E94C2700E94D2C40C94152C8EE40E94FF
:1040C000F07C882311F40C94152C0E9451B160935C
:1040D000E4047093E5048093E6049093E7040C9461
:1040E000152C83E50E94F07C882319F00E945F80E4
:1040F00001C080E080933D12E8E4FCE184918F01EF
:104100000F5F1F4F882321F00E94AFBBF801F6CF4D
:10411000E0ECF3E084918F010F5F1F4F882321F0C3
:104120000E94AFBBF801F6CF80913D128823A1F128
:1041300002EBC02E03E0D02EE12CF12C20E0809188
:104140003D1290E00E2C02C0959587950A94E2F7F7
:1041500080FF17C0BB24B394B20E222319F08CE267
:104160000E94AFBBF60125913491F9018491890138
:104170000F5F1F4F882321F00E94AFBB9801F5CF3E
:104180002B2DFFEFEF1AFF0A32E0C30ED11C45E0E2
:10419000E416F104A1F60CC0ECEBF3E084918F017E
:1041A0000F5F1F4F882321F00E94AFBBF801F6CFAD
:1041B0008AE00E94AFBB0C94152C109267020C94FD
:1041C000152C0E94167A0C94152C80913D1283FFB9
:1041D00002C00C94152C83E50E94F07C882311F416
:1041E0000C94152C0E9467B10E9484D37093DD1546
:1041F0006093DC150E94B73F0C94152C89E690E083
:104200000E948E8081110C94432E8091510F811158
:1042100003C081E08093BB06E0EDF3E084918F0161
:104220000F5F1F4F882321F00E94AFBBF801F6CF2C
:104230000E944B7B8AE00E94AFBB0C94432E8DE61C
:1042400090E00E948E8081110C94152C80913D127B
:1042500083FF02C00C94152C83E50E94F07C289605
:104260008FAF289781110C943B2C82E50E94F07C43
:1042700081110C943B2C08C08DE090E00E943086A8
:104280008AE090E00E9430860E94D2C481E0809350
:10429000670223961CAE1DAE1EAE1FAE2397279657
:1042A0001CAE1DAE1EAE1FAE27971BAE2C961FAECA
:1042B0002C97FCE36096FFAF60972CE164962FAFDC
:1042C000649736E468963FAF6897C12CD12CB0E86C
:1042D000EB2E1FEBF12E812C912C54016091350EA9
:1042E0007091360E072E000C880B990B0E942FCE72
:1042F000162F072F782E692E262F372F482F592F4C
:10430000B601C7010E9429CE882321F12091370EE2
:104310003091380E4091390E50913A0E612F702F26
:10432000872D962D0E9429CE881F8827881F8BAF46
:1043300028964FAD2897442389F0882379F08091FF
:104340006702882309F4F3C060E08FED93E00E94D8
:10435000C270EDC01C2D0D2D7E2C6F2C0E94F669B5
:104360006B017C01DC01CB0127962CAD3DAD4EAD40
:104370005FAD2797821B930BA40BB50BB7FD47C00E
:10438000D701C60188519C4FAF4FBF4F27968CAFC6
:104390009DAFAEAFBFAF27970E944B7BE0EFF3E03E
:1043A00084912F019FEF491A590A882321F00E9416
:1043B000AFBBF201F5CF81149104A104B104D1F097
:1043C000D501C401805F984DAF4FBF4FBC01CD01F7
:1043D0006C197D098E099F0928EE33E040E050E01A
:1043E0000E9404D2CA01B9010E945DBC8AE00E9409
:1043F000AFBB0DC0EDEEF3E084912F01AFEF4A1A91
:104400005A0A882321F00E94AFBBF201F5CF0E9427
:10441000F6A10E94A4BB2090370E3090380E409039
:10442000390E50903A0E9101A201612F702F872D05
:10443000962D0E943FD29F7781149104A104B1046C
:1044400049F420E030E040E85FE30E9429CE87FF96
:104450000BC008C020E030E040E450E40E9466D485
:10446000181614F446015701BBADBB2309F443C031
:1044700023962CAD3DAD4EAD5FAD23972115310593
:104480004105510541F0D701C601821B930BA40BD6
:10449000B50BB7FD30C09101A2012C966FAD2C97E2
:1044A00060967FAD609764968FAD649768969FAD78
:1044B00068970E943FD220E030E040EC5FE30E942A
:1044C00029CE87FD3CCFD701C601805A9541AF4F19
:1044D000BF4F23968CAF9DAFAEAFBFAF23972C9647
:1044E0002FAE2C9760963FAE609764964FAE649760
:1044F00068965FAE689780916702882309F41FCFA2
:1045000081149104A104B10429F4C12ED02EE72C0A
:10451000F62CE4CE90E1C91A97E2D90AE108F10835
:10452000C818D908EA08FB08F7FE09CFEECFEBED73
:10453000F3E084918F01882351F0082E000C990B31
:104540000E9430860F5F1F4FF8018491F4CF8DE0F9
:1045500090E00E9430868AE090E00E943086809150
:10456000510F8823D1F0E7EDF3E084918F01882388
:1045700051F0082E000C990B0E9430860F5F1F4FE0
:10458000F8018491F4CF8DE090E00E9430868AE0BB
:1045900090E00E9430860C94152C8091BC068823F4
:1045A00011F40C94152CE3EDF3E084918F01882332
:1045B00051F3082E000C990B0E9430860F5F1F4F9D
:1045C000F8018491F4CF0E949F7D0C94152C83E513
:1045D0000E94F07C882321F00E9444B18C0102C02B
:1045E00003EB10E080E50E94F07C882319F00E9424
:1045F00044B102C080E090E09801033B110510F047
:1046000022EB30E0892B11F00C94152C3093DF1540
:104610002093DE150C94152C0E94657F0C94152CAC
:104620000E94327B0C94152C81E08093ED040C9455
:10463000152C0E9416800C94152C0E9408800C9456
:10464000152C0E94737A0C94152C0E94637A0C949A
:10465000152C60E0C8010E94D7700C94152C849131
:104660008F010F5F1F4F882321F00E94AFBBF8011D
:10467000F6CFEEE2F4E084918F010F5F1F4F8823A5
:1046800021F00E94AFBBF801F6CF659B03C00EEF8F
:1046900013E002C003E014E0D8018D918D0188235E
:1046A00019F00E94AFBBF8CF8AE00E94AFBBE6E2F0
:1046B000F4E084918F010F5F1F4F882321F00E9447
:1046C000AFBBF801F6CF8091090187FF03C00EEF61
:1046D00013E002C003E014E0F80181918F01882308
:1046E00019F00E94AFBBF8CF8AE00E94AFBBEEE1A9
:1046F000F4E084918F010F5F1F4F882321F00E9407
:10470000AFBBF801F6CF4B9B03C00EEF13E002C026
:1047100003E014E0D8018D918D01882319F00E94E7
:10472000AFBBF8CF8AE00E94AFBBE5E1F4E0849133
:104730008F010F5F1F4F882321F00E94AFBBF8014C
:10474000F6CF8091090186FF03C00EEF13E002C08F
:1047500003E014E0F80181918F01882309F428CD4A
:104760000E94AFBBF7CF81E080930B0280930E09CC
:104770000C94152C10920B0210920E090C94152C0F
:1047800083E50E94F07C8823F9F00E94A3C7182FCC
:104790008230D8F0E1E3F2E284918F010F5F1F4F86
:1047A000882321F00E94AFBBF801F6CFE0E5F4E0EA
:1047B00084918F010F5F1F4F882311F40C94152CE7
:1047C0000E94AFBBF801F4CF10E088E40E94F07CB7
:1047D0008823B1F00E94A3C7E12FF0E08A3A910547
:1047E0003CF08F3021E092072CF08EE091E002C087
:1047F0008AEA90E0EE0FFF1FE950F74F9183808324
:1048000086E40E94F07C8823A1F00E94A3C7E12FD8
:10481000F0E0EE0FFF1FE550F74F8F3F910519F0C5
:1048200014F08FEF90E097FF02C080E090E091835A
:10483000808382E40E94F07C882309F4F6C70E94FA
:10484000A3C7E12FF0E08530910534F08838910559
:104850002CF087E890E002C085E090E0EE0FFF1FAB
:10486000ED50F74F91838083E0C788EC90E00E9481
:104870008E808111DAC784E40E94F07C882309F4D9
:10488000D4C70E9467B111E020E030E0A9010E9486
:1048900029CE811101C010E010933212112359F179
:1048A0000091E80410E00E9467B1000F111F000F93
:1048B000111FF801E552FD4F60837183828393835A
:1048C00020E030E0A9016091DB027091DC02809170
:1048D000DD029091DE020E9429CE81110CC080E0A1
:1048E00090E0A0EEBFE38093DB029093DC02A09304
:1048F000DD02B093DE020E94ABA197C73EEFE32E2C
:1049000032E1F32E0EEE12E044E0D42ED00ED801A8
:104910008D918D010E94F07C882349F00E9467B13F
:104920000E9489D3F7016083718382839383F4E0CB
:10493000EF0EF11CD012EBCF0E94817976C7F4E024
:10494000EF0EF11CD01609F470C7D8018D918D01BE
:104950000E94F07C882399F30E9467B1F70160837D
:10496000718382839383EBCF83E50E94F07C88235D
:10497000D9F00E9467B1AB01BC014093361350934C
:10498000371360933813709339134093F612509392
:10499000F7126093F8127093F9128CEC94E00E9475
:1049A0001ABD8AE00E94AFBB80E50E94F07C88239C
:1049B00099F00E9467B1AB01BC014093361350934C
:1049C000371360933813709339138FEA94E00E9481
:1049D0001ABD8AE00E94AFBB82E50E94F07C88236A
:1049E00099F00E9467B1AB01BC014093FA12509359
:1049F000FB126093FC127093FD1280E994E00E9418
:104A00001ABD8AE00E94AFBB84E50E94F07C882337
:104A100009F40BC70E9467B1AB01BC014093F612C9
:104A20005093F7126093F8127093F91282E794E0B2
:104A30000E941ABD8AE00E94AFBBF7C683E50E94C0
:104A4000F07C882351F00E9467B160931213709339
:104A50001313809314139093151384E50E94F07C34
:104A6000882351F00E9467B160930E1370930F1367
:104A7000809310139093111382E40E94F07C88239A
:104A800051F00E945CB16093391270933A12809396
:104A90003B1290933C1288E50E94F07C882351F0F1
:104AA0000E9467B160932613709327138093281395
:104AB0009093291389E50E94F07C882351F00E948D
:104AC00067B160932A1370932B1380932C139093E8
:104AD0002D138AE50E94F07C882351F00E9467B173
:104AE00060932E1370932F13809330139093311390
:104AF00085E40E94F07C882309F497C60E9467B180
:104B0000609332137093331380933413909335135F
:104B10008CC6D5018D915D010E94F07C882311F136
:104B20000E9467B12B013C01F70120813181428154
:104B300053810E943FD29B01AC01D6016D917D91C2
:104B40008D919C910E9440D2F60160837183828393
:104B50009383D7014D925D926D927C921397C80119
:104B60000E94A37C0F5F1F4FB4E0CB0ED11CE4E08A
:104B7000EE0EF11C0330110561F60E9484B50E940F
:104B8000737A53C68AE50E94F07C882351F00E9414
:104B900067B160930F097093100980931109909386
:104BA000120940910F0950911009609111097091FB
:104BB000120984EF94E00E941ABD8AE00E94AFBB04
:104BC00034C6E8E4FCE184918F010F5F1F4F882316
:104BD00021F00E94AFBBF801F6CF83E50E94F07C84
:104BE000882321F00E9402C580938502EEE3F5E060
:104BF00084918F010F5F1F4F882321F00E94AFBB6C
:104C0000F801F6CF80918502811103C0EAE3F5E057
:104C100002C0E6E3F5E084918F010F5F1F4F882308
:104C200021F00E94AFBBF801F6CFEEE2F5E08491EF
:104C30008F010F5F1F4F882321F00E94AFBBF80147
:104C4000F6CF4091790250917A0260917B02709187
:104C50007C028CE295E00E941ABD40917D02509149
:104C60007E0260917F027091800289E295E00E944D
:104C70001ABD40918102509182026091830270912D
:104C8000840286E295E00E941ABDEEE1F5E084918F
:104C90008F010F5F1F4F882321F00E94AFBBF801E7
:104CA000F6CF40916D0250916E0260916F0270914B
:104CB00070028CE195E00E941ABD40917102509102
:104CC0007202609173027091740289E195E00E9412
:104CD0001ABD4091750250917602609177027091F1
:104CE000780286E195E00E941ABD8AE00E94AFBB7F
:104CF0009CC583E50E94F07C882309F496C50E9438
:104D0000A3C790936B0280936A028FC58DED90E0EC
:104D10000E948E80811189C583E50E94F07C8823E2
:104D200009F483C50091E80410E00E94A3C7000FB6
:104D3000111FF801E859FD4F9183808376C580E506
:104D40000E94F07C882309F470C50E94A3C78C01DF
:104D500083E50E94F07C882321F00E94A3C77C0198
:104D600003C0EE24EA94FE2CC7010196039708F0D5
:104D70005CC517FD5AC5E2EFF2E0C8019927219101
:104D800031912817390709F450C523E0E834F207B8
:104D9000B1F751C783E50E94F07C882321F00E947F
:104DA000A3C78C0102C00EE610E080E50E94F07CF3
:104DB000882319F00E94A3C702C088EE93E06C011B
:104DC000990FEE08FF081016110674F440E050E049
:104DD000BA01C8010E944081C701B6010E94BE69A4
:104DE0008FE10E94F13721C5C701B6010E94BE695B
:104DF0001CC585E40E94F07C811110C080E50E94F2
:104E0000F07C882399F00E9467B160934F02709301
:104E10005002809351029093520208C00E94A3C78F
:104E2000181619065CF7E1E3F2E271C089E40E940A
:104E3000F07C882381F00E9467B12CE933E549E4D6
:104E40005EE30E948ECE6093570270935802809367
:104E5000590290935A0284E40E94F07C882381F0E6
:104E60000E9467B12CE933E549E45EE30E941CD35C
:104E700060935302709354028093550290935602AC
:104E8000E8E4FCE184918F010F5F1F4F882321F03C
:104E90000E94AFBBF801F6CF40914F0250915002F3
:104EA000609151027091520286E595E00E941ABD10
:104EB0002CE933E549E45EE36091570270915802B2
:104EC0008091590290915A020E941CD3AB01BC01FF
:104ED00082E595E00E94FFBC2CE933E549E45EE3FE
:104EE0006091530270915402809155029091560244
:104EF0000E948ECEAB01BC018EE495E00E94FFBC07
:104F00008AE00E94AFBB91C40E94AFBBF8018491BC
:104F10008F010F5F1F4F8111F7CF01E114E0D8011E
:104F20008D918D01882309F443C90E94AFBBF7CF4F
:104F300083E50E94F07C082F8823A1F00E9467B1CE
:104F40006093DF027093E0028093E1029093E202AB
:104F500011E020E030E0A9010E9429CE811110E08B
:104F60001093381280E50E94F07C182F8823A9F056
:104F700020E030E0A9016091DF027091E0028091B1
:104F8000E1029091E2020E9429CE882319F00E944A
:104F900002C5182F1093381248C4011146C4E8E422
:104FA000FCE184918F010F5F1F4F882321F00E9445
:104FB000AFBBF801F6CF80913812811103C06DE0CC
:104FC00074E002C060E074E08FE695E00E94B6BB3A
:104FD00020E030E040E05FE36091DF027091E002AA
:104FE0008091E1029091E2020E9440D20E9484D31B
:104FF0008EE595E00E9477BCEAE5F5E084918F01AB
:105000000F5F1F4F882309F410C40E94AFBBF80143
:10501000F5CF85E40E94F07C882321F00E94A3C78D
:105020007C0102C0E12CF12C83E40E94F07C8823F7
:1050300049F00E94A3C7CB57DF4F99838883C55897
:10504000D04008C0E5E0F0E0CB57DF4FF983E883BC
:10505000C558D04085E50E94F07C882341F00E942D
:1050600002C5C957DF4F8883C758D04005C0C9570C
:10507000DF4F1882C758D04083E50E94F07C882318
:1050800079F00E9467B128966FAF289724967FAF7A
:1050900024972C968FAF2C9760969FAF609710C087
:1050A00028961FAE289724961FAE2497F7FC0EC0B3
:1050B000F6E12C96FFAF2C9723E460962FAF609714
:1050C000E114F10459F41092E80408C03CE82C966D
:1050D0003FAF2C9742E460964FAF60970E94F6690D
:1050E0004B015C01EF2819F402E214E00BC005E368
:1050F00014E0D8018D918D01882309F459C80E94CC
:10510000AFBBF7CFF80181918F01882319F00E947E
:10511000AFBBF8CF8AE00E94AFBB0E9407408FE789
:105120008093510881E080936702C358DF4F8882E3
:105130009982AA82BB82CD57D040C857DF4F888260
:105140009982AA82BB82C858D04068961FAE6897E1
:10515000F0E46C96FFAF6C972CE1A0962FAFA09770
:1051600036E4A4963FAFA497A8961FAEA897AC9636
:105170001FAEAC97E0961FAEE097E4961FAEE497A3
:10518000EC961CAE1DAE1EAE1FAEEC97E8961CAEA4
:105190001DAE1EAE1FAEE897C12CD12C7601FFE7E5
:1051A0004F2E512C612C712C8FE790E0A0E0B0E0E5
:1051B00023968CAF9DAFAEAFBFAF2397CF57DF4FD6
:1051C000188219821A821B82C158D04091E0ED9654
:1051D0009FAFED9765961FAE1EAE659710E000E09D
:1051E000312C212C80916702882309F4D3C10E94BD
:1051F000F6696BAF7CAF8DAF9EAF80914F0888236F
:1052000009F4D1C00E94CB401091370E0091380EA6
:105210003090390E20903A0E212F302F432D522DF1
:10522000A8966FADA897AC967FADAC97E0968FAD82
:10523000E097E4969FADE4970E9429CE87FF0CC0CB
:10524000A8961FAFA897AC960FAFAC97E0963FAE6D
:10525000E097E4962FAEE497212F302F432D522D67
:1052600068966FAD68976C967FAD6C97A0968FAD82
:10527000A097A4969FADA4970E9466D4181664F4D4
:1052800068961FAF68976C960FAF6C97A0963FAE6D
:10529000A097A4962FAEA497ED96AFADED97289664
:1052A0002FAD289724963FAD24972C964FAD2C9781
:1052B00060965FAD6097612F702F832D922DAA238A
:1052C00009F455C00E9466D418160CF06CC04BADA2
:1052D0005CAD6DAD7EAD481959096A097B09DB01EA
:1052E000CA0188589341A109B109B7FD5CC0239652
:1052F0008CAD9DADAEADBFAD239784199509A609C0
:10530000B709B595A7959795879580935108CF577D
:10531000DF4F488359836A837B83C158D0402896E6
:10532000BFAD2897A896BFAFA8972496EFAD249756
:10533000AC96EFAFAC972C96FFAD2C97E096FFAFF5
:10534000E09760962FAD6097E4962FAFE4978BAD12
:105350009CADADADBEADC358DF4F88839983AA83A2
:10536000BB83CD57D040ED961FAEED971CC00E9479
:1053700029CE87FF18C08BAD9CADADADBEADC35877
:10538000DF4F288139814A815B81CD57D040821B14
:10539000930BA40BB50BAC01BD01485853416109F7
:1053A000710977FFADC220E030E040EA51E4289671
:1053B0006FAD289724967FAD24972C968FAD2C97B0
:1053C00060969FAD60970E9440D29B01AC01612F17
:1053D000702F832D922D0E9466D418166CF4ECE386
:1053E000F6E084918F010F5F1F4F882309F41DC2DF
:1053F0000E94AFBBF801F5CF80E398EFAFEFBFEFAE
:10540000C857DF4F288139814A815B81C858D04015
:10541000821B930BA40BB50B2BAD3CAD4DAD5EAD1C
:10542000820F931FA41FB51FB7FD11C00E944B7BB5
:105430008AE00E94AFBB8BAD9CADADADBEADC85791
:10544000DF4F88839983AA83BB83C858D0408BAD34
:105450009CADADADBEAD880F991FAA1FBB1FC35831
:10546000DF4F288139814A815B81CD57D040821B33
:10547000930BA40BB50B88199909AA09BB098138AC
:105480009F44A241B10568F0EEE1F6E084918F01FE
:105490000F5F1F4F882309F4C8C10E94AFBBF801FA
:1054A000F5CF65964EAD5FAD6597CB57DF4F8881E1
:1054B0009981C558D040841795070CF068C0E1EC7D
:1054C000F5E084918F010F5F1F4F882321F00E9428
:1054D000AFBBF801F6CFB701A6018CEA95E00E94B8
:1054E0001ABD8AE00E94AFBBE8964CAD5DAD6EADD3
:1054F0007FADE89787E995E00E941ABD8AE00E9497
:10550000AFBBEC964CAD5DAD6EAD7FADEC9782E878
:1055100095E00E941ABD8AE00E94AFBBC957DF4FD9
:105520009881C758D040992309F47FC1C0924F0297
:10553000D0925002E0925102F09252022CE933E5EF
:1055400049E45EE3E8966CAD7DAD8EAD9FADE89726
:105550000E948ECE60935702709358028093590236
:1055600090935A022CE933E549E45EE3EC966CAD86
:105570007DAD8EAD9FADEC970E941CD3609353021E
:105580007093540280935502909356024EC10E942C
:10559000E87028CE80916702811147C10E940740C0
:1055A00044C121962EAD3FAD219722553840299612
:1055B0003FAF2EAF29972196AEADBFAD21978D910C
:1055C0002196BFAFAEAF2197882309F4B0C0F80190
:1055D000E359FD4F2081318142815381F801E75821
:1055E000FD4F60817181828193810E9440D220E0D1
:1055F00030E040E05FE30E948ECE9B01AC01F10100
:1056000060817181828193810E9466D4181634F47E
:10561000C801815C9F4D0E946FBB03C060E070E0D9
:10562000CB01D1014D905D906D907C90EBADFCADC8
:10563000C080D180E280F380A70196010E9440D211
:10564000F801E55CFC4E20813181428153810E944A
:1056500040D29B01AC01C301B2010E943FD24B0179
:105660005C0120E030E040EA51EC0E9466D418165C
:105670007CF520E030E040EA51E4C501B4010E942D
:1056800029CE87FF25C0A5019401C701B6010E945C
:105690003FD24B015C01A70196010E943FD29B01C2
:1056A000AC01C301B2010E9440D2D1016D937D9340
:1056B0008D939C931397EBADFCAD80829182A28277
:1056C000B38229968EAD9FAD29970E94A37C2FC0EF
:1056D000E1E3F2E284918F010F5F1F4F882321F0F5
:1056E0000E94AFBBF801F6CFEEECF6E084918F019B
:1056F0000F5F1F4F882321F00E94AFBBF801F6CF48
:1057000061E080EC96E00E94C2700E94DB3988E282
:1057100090E09A83898388EC90E099A388A3BE01E6
:105720006F5F7F4FCE0180960E9484C67EC0F4E0FA
:105730002F0E311C0C5F1F4F2BAD3CAD2C5F3F4F2C
:105740003CAF2BAF0C30110509F02BCF0E9484B574
:105750000E94737A60E080EB96E00E94C27083E959
:1057600092E099A388A308EC10E01A830983BE0194
:10577000605E7F4FCE0101960E9484C68AEB92E064
:1057800099A388A31A830983BE01605E7F4FCE016F
:1057900001960E9484C649C00E94675346C00E9479
:1057A000495543C00E94005240C083E50E94F07CEE
:1057B000882321F00E9402C591E089270E94754E3E
:1057C00034C081E080939B0210921E0983E50E9401
:1057D000F07C882309F41FC20E9402C5811125C0F4
:1057E0001AC2E092E904E8E4FCE184918F010F5FC2
:1057F0001F4F882321F00E94AFBBF801F6CFB701FD
:1058000077278CEE96E00E9477BC8AE00E94AFBBBF
:105810000CC06D2D7C2D8EEF96E00E94B6BB82E20F
:105820000E94AFBB8AE00E94AFBB0E94C0A62BC201
:1058300081E08093D80482E79AEB9093930280935F
:10584000920280916A008F7C806180936A00EE9A58
:10585000ECCF0E9451B1AB01BC014093CD115093EC
:10586000CE116093CF117093D0118CE191E10E9421
:1058700099590C945F1F0E9467B10E949BB00E94CF
:1058800067B120E030E04AEA52E40E9429CE1816BF
:1058900044F00E94278160E083E094E00E94C2709F
:1058A00002C00E949C8C6091350E7091360E072EBE
:1058B000000C880B990B0E942FCE2091370E30914F
:1058C000380E4091390E50913A0E0E9466D4181647
:1058D0002CF460E088EF93E00E94C270E4EFF3E004
:1058E00084918F01882311F40C943C21082E000C24
:1058F000990B0E9430860F5F1F4FF8018491F2CF01
:1059000065964EAD5FAD6597141615060CF049C14E
:10591000CF57DF4F88809980AA80BB80C158D04084
:10592000880E991EAA1EBB1ECF57DF4F28813981D2
:105930004A815B81C158D040281B390B4A0B5B0B55
:10594000CA01B901A30192010E94F5D1A5019401F8
:105950000E942FD523964CAC5DAC6EAC7FAC2397E8
:10596000420E531E641E751E34E143165104610439
:1059700071041CF14CEE44165104610471043CF4B2
:1059800050E845165104610471043CF105C05BEE1A
:10599000452E512C612C712C23964CAE5DAE6EAE13
:1059A0007FAE23978EEF90E0A0E0B0E084199509D8
:1059B000A609B7092C013D0116C024E130E040E002
:1059C00050E023962CAF3DAF4EAF5FAF239744E13D
:1059D000442E512C612C712C06C023964CAE5DAE2A
:1059E0006EAE7FAE239723964CAD5DAD6EAD7FADB1
:1059F000239788EA96E00E94AFC7B301A20183EA29
:105A000096E00E94AFC768964FAD68976C965FAD01
:105A10006C97A0966FADA097A4967FADA4978CE9E4
:105A200096E00E941ABDA8964FADA897AC965FADC0
:105A3000AC97E0966FADE097E4967FADE49785E98B
:105A400096E00E941ABD65964EAD5FAD65974330F6
:105A500051050CF4A6C0C301B2010E942FCE20E074
:105A600030E040E850E40E948ECE6B017C016896E5
:105A70002FAD68976C963FAD6C97A0964FADA097F1
:105A8000A4965FADA497A8966FADA897AC967FAD8E
:105A9000AC97E0968FADE097E4969FADE4970E94B7
:105AA0003FD22BED3FE049E450E40E948ECE20E04F
:105AB00030E040E05FE30E948ECE9B01AC01C70165
:105AC000B6010E941CD36B017C01C501B4010E9488
:105AD0002FCE2FE632E143E85AE30E948ECE4B01EF
